:020000040800F2
:100000000000022081020008C1020008C1020008AD
:10001000C1020008C1020008C1020008000000007F
:10002000000000000000000000000000C102000805
:10003000C102000800000000C1020008C10200085F
:10004000C1020008C1020008C1020008C102000884
:10005000C1020008C1020008C1020008C102000874
:10006000C1020008C1020008C1020008C102000864
:10007000C1020008C1020008C1020008C102000854
:10008000C1020008C1020008C1020008C102000844
:10009000C1020008C1020008C1020008C102000834
:1000A000C1020008C1020008C1020008C102000824
:1000B000C1020008C1020008C1020008C102000814
:1000C000C1020008C1020008C1020008C102000804
:1000D000C1020008C1020008C1020008C1020008F4
:1000E000C1020008C1020008C1020008C1020008E4
:1000F000C1020008C1020008C1020008C1020008D4
:10010000C1020008C1020008C1020008C1020008C3
:10011000C1020008C1020008C1020008C1020008B3
:10012000C1020008C1020008C1020008C1020008A3
:10013000C1020008C1020008C1020008C102000893
:10014000C1020008C1020008C1020008C102000883
:10015000C1020008C1020008C1020008C102000873
:10016000C1020008C1020008C1020008C102000863
:10017000C1020008C1020008C1020008C102000853
:08018000C1020008C1020008E1
:1001880080B400AF0F4B1B680E4A43F480331360F2
:1001980000BF0C4B1B6803F40033002BF9D0094B4C
:1001A8009B68084A43F00103936000BF054B9B68B6
:1001B80003F00403002BF9D000BF00BFBD4680BC8C
:1001C800704700BF0038024080B483B000AF786049
:1001D800074B5B6901217A6801FA02F21146044A69
:1001E8004B40536100BF0C37BD4680BC704700BF11
:1001F800000C024080B483B000AF786000BF7B6819
:100208005A1E7A60002BFAD100BF00BF0C37BD46DA
:1002180080BC704780B500AFFFF7B2FF144B1B6B73
:10022800134A43F008031363124B1B68114A43F047
:10023800AA4313600D20FFF7C7FF49F64040FFF7B8
:10024800D9FF0C20FFF7C0FF49F64040FFF7D2FF67
:100258000E20FFF7B9FF49F64040FFF7CBFF0F200C
:10026800FFF7B2FF49F64040FFF7C4FFE2E700BFDF
:1002780000380240000C0240002103E0094B5B58A3
:10028800435004310848094B42189A42F6D3084AA9
:1002980002E0002342F8043B064B9A42F9D3FFF7E9
:1002A800B9FF7047C40200080000002000000020C9
:0C02B8000000002000000020FEE7000015
:0402C400F8B500BFCA
:0402C800F8B500BFC6
:040000050800018866
:00000001FF
