:020000040800F2
:100000000000022091020008D1020008D10200087D
:10001000D1020008D1020008D1020008000000004F
:10002000000000000000000000000000D1020008F5
:10003000D102000800000000D1020008D10200082F
:10004000D1020008D1020008D1020008D102000844
:10005000D1020008D1020008D1020008D102000834
:10006000D1020008D1020008D1020008D102000824
:10007000D1020008D1020008D1020008D102000814
:10008000D1020008D1020008D1020008D102000804
:10009000D1020008D1020008D1020008D1020008F4
:1000A000D1020008D1020008D1020008D1020008E4
:1000B000D1020008D1020008D1020008D1020008D4
:1000C000D1020008D1020008D1020008D1020008C4
:1000D000D1020008D1020008D1020008D1020008B4
:1000E000D1020008D1020008D1020008D1020008A4
:1000F000D1020008D1020008D1020008D102000894
:10010000D1020008D1020008D1020008D102000883
:10011000D1020008D1020008D1020008D102000873
:10012000D1020008D1020008D1020008D102000863
:10013000D1020008D1020008D1020008D102000853
:10014000D1020008D1020008D1020008D102000843
:10015000D1020008D1020008D1020008D102000833
:10016000D1020008D1020008D1020008D102000823
:10017000D1020008D1020008D1020008D102000813
:08018000D1020008D1020008C1
:1001880080B400AF0F4B1B680E4A43F480331360F2
:1001980000BF0C4B1B6803F40033002BF9D0094B4C
:1001A8009B68084A43F00103936000BF054B9B68B6
:1001B80003F00403002BF9D000BF00BFBD4680BC8C
:1001C800704700BF0038024080B400AF074B1B6B7C
:1001D800064A43F008031363054B1B68044A43F0BF
:1001E800AA43136000BFBD4680BC70470038024078
:1001F800000C024080B483B000AF7860074B5B69A5
:1002080001217A6801FA02F21146044A4B4053610F
:1002180000BF0C37BD4680BC704700BF000C0240D1
:1002280080B483B000AF786000BF7B685A1E7A60E4
:10023800002BFAD100BF00BF0C37BD4680BC704709
:1002480080B500AFFFF79CFFFFF7BEFF0D20FFF75B
:10025800D1FF49F64040FFF7E3FF0C20FFF7CAFF44
:1002680049F64040FFF7DCFF0E20FFF7C3FF49F6D1
:100278004040FFF7D5FF0F20FFF7BCFF49F640408D
:10028800FFF7CEFFE2E70000002103E0094B5B58CF
:10029800435004310848094B42189A42F6D3084A99
:1002A80002E0002342F8043B064B9A42F9D3FFF7D9
:1002B800C7FF7047D402000800000020000000209B
:0C02C8000000002000000020FEE7000005
:0402D400F8B500BFBA
:0402D800F8B500BFB6
:040000050800018866
:00000001FF
